:100000000C9465000C948D000C948D000C948D0064
:100010000C948D000C948D000C948D000C948D002C
:100020000C948D000C948D000C948D000C948D001C
:100030000C948D000C948D000C948D000C948D000C
:100040000C9477030C948D000C94E7030C94C1037B
:100050000C948D000C948D000C948D000C948D00EC
:100060000C948D000C948D00000102030405000027
:1000700000002300260029000000000024002700C3
:100080002A0000000000250028002B0004040404BE
:100090000404040402020202020203030303030332
:1000A000010204081020408001020408102001020F
:1000B00004081020000000080002010000030407EB
:1000C0000000000000000000190411241FBECFEF43
:1000D000D8E0DEBFCDBF21E0ACE1B1E001C01D92B0
:1000E000A33EB207E1F711E0A0E0B1E0E2EAFDE0F3
:1000F00002C005900D92AC31B107D9F710E0C5E60A
:10010000D0E004C02197FE010E94C906C436D10781
:10011000C9F70E946A040C94CF060C940000833047
:1001200081F028F4813099F08230A9F00895873069
:10013000A9F08830C9F08430B1F4809180008F7DBF
:1001400003C0809180008F7780938000089584B5EC
:100150008F7784BD089584B58F7DFBCF8091B000EB
:100160008F778093B00008958091B0008F7DF9CF94
:100170001F93CF93DF93282F30E0F901EC54FF4F0A
:100180008491F901E056FF4FD491F901E457FF4FF4
:10019000C491CC23A9F0162F81110E948F00EC2F5F
:1001A000F0E0EE0FFF1FEE57FF4FA591B4918FB710
:1001B000F894EC91111108C0D095DE23DC938FBF29
:1001C000DF91CF911F910895DE2BF8CF682F80919A
:1001D000C8010E94B8008091DF019091E001823057
:1001E000910538F0880F991F880F991F059701977F
:1001F000F1F7089581E00C94E600682F8091C70123
:100200009091C80189130C94B8000895CF93DF939F
:1002100090E0FC01E056FF4F249184579F4FFC0172
:1002200084918823D1F090E0880F991FFC01E85851
:10023000FF4FA591B491FC01EE57FF4FC591D491AA
:10024000623071F49FB7F8943C91822F809583239C
:100250008C93E8812E2B28839FBFDF91CF91089547
:100260008FB7F894EC912E2B2C938FBFF6CF3FB71E
:10027000F8948091230190912401A0912501B091DF
:10028000260126B5A89B05C02F3F19F00196A11D98
:10029000B11D3FBFBA2FA92F982F8827BC01CD01D0
:1002A000620F711D811D911D42E0660F771F881F2F
:1002B000991F4A95D1F708958F929F92AF92BF925E
:1002C000CF92DF92EF92FF924B015C010E943701C7
:1002D0006B017C010E9437016C197D098E099F0911
:1002E000683E734081059105A8F321E0821A9108C8
:1002F000A108B10888EEC80E83E0D81EE11CF11CED
:1003000081149104A104B10429F7FF90EF90DF90CC
:10031000CF90BF90AF909F908F900895AF92BF9273
:10032000CF92DF92EF92FF920F931F93CF93DF93C1
:100330006C017B018B01040F151FEB015E01AE18F0
:10034000BF08C017D10759F06991D601ED91FC9112
:100350000190F081E02DC6010995892B79F7C5013F
:10036000DF91CF911F910F91FF90EF90DF90CF9091
:10037000BF90AF900895FC01538D448D252F30E040
:10038000842F90E0821B930B541710F0CF960895A2
:1003900001970895FC01918D828D981761F0A28DCF
:1003A000AE0FBF2FB11D5D968C91928D9F5F9F7395
:1003B000928F90E008958FEF9FEF0895FC01918D4B
:1003C000828D981731F0828DE80FF11D858D90E0B8
:1003D00008958FEF9FEF0895FC01918D228D892F55
:1003E00090E0805C9F4F821B91098F73992708953D
:1003F00087E291E00E94EC0121E0892B09F420E0E2
:10040000822F089580E090E0892B29F00E94F80166
:1004100081110C9400000895FC01A48DA80FB92F40
:10042000B11DA35ABF4F2C91848D90E001968F731C
:100430009927848FA689B7892C93A089B1898C913B
:10044000837080648C93938D848D981306C002888A
:10045000F389E02D80818F7D80830895EF92FF9254
:100460000F931F93CF93DF93EC0181E0888F9B8DD7
:100470008C8D98131AC0E889F989808185FF15C091
:100480009FB7F894EE89FF896083E889F9898081B4
:100490008370806480839FBF81E090E0DF91CF9183
:1004A0001F910F91FF90EF900895F62E0B8D10E0A5
:1004B0000F5F1F4F0F731127E02E8C8D8E110CC014
:1004C0000FB607FCFACFE889F989808185FFF5CF5F
:1004D000CE010E940C02F1CFEB8DEC0FFD2FF11D30
:1004E000E35AFF4FF0829FB7F8940B8FEA89FB899C
:1004F00080818062CFCFCF93DF93EC01888D8823FA
:10050000B9F0AA89BB89E889F9898C9185FD03C076
:10051000808186FD0DC00FB607FCF7CF8C9185FF5B
:10052000F2CF808185FFEDCFCE010E940C02E9CF92
:10053000DF91CF9108958EBD00000DB407FEFDCF71
:100540008EB508950F931F930091C9011091CA01B0
:100550002091CB013091CC0140E052E16AE770E09C
:1005600080E0041715072607370740F4769567954E
:10057000579547958F5F8630A1F787E0982F906A4F
:100580009695809581709CBD8DBD80E01F910F91E7
:100590000C94E600CF93DF93D82FC62F0E94A202BF
:1005A0008D2F80620E949B028093CD018C2F0E9430
:1005B0009B02DF91CF910C94FA00CF93C82F0E9439
:1005C000A2028C2F0E949B028093CD018FEF0E948C
:1005D0009B02C82F0E94FA008C2FCF910895CF93D1
:1005E000C82F0E94A2028C2F0E949B028093CD01F3
:1005F000CF910C94FA0081EE0E94EF028091CD0120
:1006000008950F931F93CF93182FC62F0E94A20215
:10061000812F80620E949B028093CD0101E011E056
:10062000C15030F0F80181918F010E949B02F8CFF8
:10063000CF911F910F910C94FA000E94A20280E5C5
:100640000E949B028093CD0183E70E949B020C9441
:10065000FA008F929F92AF92BF920F931F93CF9306
:10066000DF93CDB7DEB7A1970FB6F894DEBF0FBE0C
:10067000CDBF19A2423008F44AE08E010F5D1F4F32
:10068000842E912CB12CA12CA50194010E94A706C7
:10069000E62FB901CA01EA3044F5E05DD801EE93D6
:1006A0008D01232B242B252B79F790E080E01097E8
:1006B00069F0FD0101900020E9F73197AF014A1B75
:1006C0005B0BBD0187E291E00E948E01A1960FB6FF
:1006D000F894DEBF0FBECDBFDF91CF911F910F9178
:1006E000BF90AF909F908F900895E95CD7CF1F92F5
:1006F0000F920FB60F9211242F933F938F939F93D6
:10070000AF93BF9380911F0190912001A09121018F
:10071000B091220130911E0123E0230F2D3758F5AF
:100720000196A11DB11D20931E0180931F0190937E
:100730002001A0932101B093220180912301909187
:100740002401A0912501B09126010196A11DB11DA2
:100750008093230190932401A0932501B093260157
:10076000BF91AF919F918F913F912F910F900FBEAD
:100770000F901F90189526E8230F0296A11DB11D1A
:10078000D2CF1F920F920FB60F9211242F933F9347
:100790004F935F936F937F938F939F93AF93BF9389
:1007A000EF93FF9387E291E00E940C02FF91EF919B
:1007B000BF91AF919F918F917F916F915F914F9179
:1007C0003F912F910F900FBE0F901F9018951F9281
:1007D0000F920FB60F9211242F938F939F93EF9345
:1007E000FF93E0913701F09138018081E0913D0164
:1007F000F0913E0182FD1BC09081809140018F5F8E
:100800008F7320914101821741F0E0914001F0E0A7
:10081000E95DFE4F958F80934001FF91EF919F918D
:100820008F912F910F900FBE0F901F901895808180
:10083000F4CFE7E2F1E01382128288EE93E0A0E0C9
:10084000B0E084839583A683B7838BE091E09183A6
:10085000808385EC90E09587848784EC90E097878F
:10086000868780EC90E0918B808B81EC90E0938B7D
:10087000828B82EC90E0958B848B86EC90E0978B5A
:10088000868B118E128E138E148EE5ECF1E087E0CC
:10089000828388E0838380E896E9A8E9B0E08483D6
:1008A0009583A683B78380E28187108A118A85E0C9
:1008B000838B81E0848B158A85E090E0A0E0B0E036
:1008C000828F938FA48FB58F84EC91E09183808386
:1008D00012860895789484B5826084BD84B5816061
:1008E00084BD85B5826085BD85B5816085BD8091FB
:1008F0006E00816080936E00109281008091810073
:10090000826080938100809181008160809381006A
:10091000809180008160809380008091B10084602C
:100920008093B1008091B00081608093B00080918D
:100930007A00846080937A0080917A00826080934C
:100940007A0080917A00816080937A0080917A00A9
:10095000806880937A001092C100E0913701F09195
:10096000380182E08083E0913301F09134011082FC
:10097000E0913501F091360180E1808310923F01D2
:10098000E0913B01F0913C0186E08083E0913901E8
:10099000F0913A01808180618083E0913901F0918A
:1009A0003A01808188608083E0913901F0913A01B9
:1009B000808180688083E0913901F0913A018081E3
:1009C0008F7D808362E086E00E940601CFB7F894B5
:1009D00080911C01811127C0E6E9F0E08491EAEAE8
:1009E000F0E09491E82FF0E0EE0FFF1FE858FF4F82
:1009F000A591B491EC91E92321F461E08AE00E9491
:100A0000B80061E08AE00E9406018CB580618CBD6F
:100A10008CB580648CBD61E08DE00E94060161E0D0
:100A20008BE00E94060180911C018F5F80931C0166
:100A3000CFBF8091C7018F3F09F493C09091C80147
:100A40009F3F09F48EC0891741F061E00E940601C2
:100A500061E08091C8010E94060180E00E94FD00D3
:100A600081E00E94E60065E070E080E090E00E9496
:100A70005C016FE584E00E94CA0286E00E94DD020C
:100A800045E550E060E070E04093DB015093DC010D
:100A90006093DD017093DE01682F677D86E00E9420
:100AA000CA0286E00E94DD028DE10E94DD02C82FAD
:100AB0000E941D038DE10E94DD0291E0C81390E0C9
:100AC0009093D501882341F0C81302C00E941D03F2
:100AD00060E08DE10E94CA021092D70160E08CE1D3
:100AE0000E94CA021092D9016FE381E00E94CA02FB
:100AF00063E082E00E94CA0280E28093CE01C1E1FD
:100B00006091CE018C2F0E94CA02CF5FC731C1F71E
:100B100063E083E00E94CA0285E08093D8016CE420
:100B20000E94CA0260E787E00E94CA0282EE0E9429
:100B3000EF020E94FB026CE080E00E94CA0280E0AB
:100B40000E94DD028093D40181FD0BC0682F62609A
:100B50006093D40180E00E94CA028BE19EE4019779
:100B6000F1F76091D8018AE00E9401036091D801F9
:100B700080E10E94010386E00E94DD02887F682FE9
:100B8000616086E00E94CA0280E00E94FD008091C0
:100B9000DB019091DC018230910538F0880F991FBC
:100BA000880F991F05970197F1F78091D70181115F
:100BB0000E94FB026091D4016E7F6093D40180E0BB
:100BC0000E94CA0282E00E94DD02E8E6F0E0E491C1
:100BD00061E070E001C0660FEA95EAF7682B82E0F9
:100BE0000E94CA02CAEBD0E006EA10E092E9E92EC0
:100BF00090E0F92EBB24B39420E0C22E20E0D22E48
:100C0000AA24A394FE018491F8017490F7016490E2
:100C100061107EC080910001882309F46BC080912F
:100C20001D018B2580931D018091D901712C6624B3
:100C30006394811108C07090CE01672C772011F069
:100C40006624639476180E94A20280EA0E949B02A6
:100C50008093CD01662021F080911D010E949B02AE
:100C60007A94FFEF80E07F12F9CF0E94FA0081E0D2
:100C70000E94FD008FB7F89440901F015090200112
:100C800060902101709022018FBF8FEF0E94EF02D0
:100C90008091CD01807309F04CC02FB7F8948091FA
:100CA0001F0190912001A0912101B09122012FBF3D
:100CB00084199509A609B70980369105A105B105E2
:100CC00020F3A092DA0160911D0170E090E080E0D5
:100CD0004AE00E94290342E050E069E171E087E2C6
:100CE00091E00E948E0168EC70E080E090E00E944C
:100CF0005C0180E080930001C114D10409F482CF2B
:100D00000E94F801882309F47DCF0E9400007ACF69
:100D100081110E948F00E62DF0E0EE0FFF1FE259D7
:100D2000FF4FA591B4918C91782209F473CF81E0A3
:100D3000E1CF80E00E94FD0060E787E00E94CA02E8
:100D40008091CD0184FFBFCF0E94FB02BCCFA1E206
:100D50001A2EAA1BBB1BFD010DC0AA1FBB1FEE1F35
:100D6000FF1FA217B307E407F50720F0A21BB30B80
:100D7000E40BF50B661F771F881F991F1A9469F7FC
:100D800060957095809590959B01AC01BD01CF0158
:100D90000895EE0FFF1F0590F491E02D0994F8944B
:020DA000FFCF83
:100DA20001303030303100000000002E028E01BBD5
:0C0DB200017B02EC01CA01DE010D0A0009
:00000001FF
